{
  "contractName": "EtaProto",
  "abi": [
    {
      "inputs": [],
      "payable": false,
      "stateMutability": "nonpayable",
      "type": "constructor"
    },
    {
      "constant": false,
      "inputs": [],
      "name": "makeOrder",
      "outputs": [],
      "payable": false,
      "stateMutability": "nonpayable",
      "type": "function"
    }
  ],
  "bytecode": "0x608060405234801561001057600080fd5b5033600160006101000a81548173ffffffffffffffffffffffffffffffffffffffff021916908373ffffffffffffffffffffffffffffffffffffffff16021790555060e8806100606000396000f300608060405260043610603f576000357c0100000000000000000000000000000000000000000000000000000000900463ffffffff168063486a55b1146044575b600080fd5b348015604f57600080fd5b5060566058565b005b600160009054906101000a900473ffffffffffffffffffffffffffffffffffffffff166000806101000a81548173ffffffffffffffffffffffffffffffffffffffff021916908373ffffffffffffffffffffffffffffffffffffffff1602179055505600a165627a7a723058208f1ff792cda4108956b8d47993e920c939321040fdf538802660087199a5e8480029",
  "source": "pragma solidity ^0.4.23;\n\ncontract EtaProto {\n    \n    address maker;\n    address owner;\n\n    enum Status {open, closed, locked, canceled }\n\n    struct Order {\n        string tokenHave;\n        string tokenNeed;\n        uint256 quantity;\n        uint256 value;\n        uint256 timestamp;\n        Status status;\n    }\n\n    constructor () public {\n        owner = msg.sender;\n    }\n\n    mapping (address => Order) listed_orders;\n\n    function makeOrder() public  {\n        maker = owner;\n    }\n}",
  "sourcePath": "/home/suraj333/COINSHIP/contracts/EtaProto.sol",
  "compiler": {
    "name": "solc",
    "version": "0.4.24+commit.e67f0147.Emscripten.clang"
  },
  "schemaVersion": "2.0.1",
  "updatedAt": "2018-10-01T16:37:41.114Z"
}