{
  "contractName": "ZetaProto",
  "abi": [
    {
      "inputs": [],
      "payable": false,
      "stateMutability": "nonpayable",
      "type": "constructor"
    },
    {
      "constant": false,
      "inputs": [
        {
          "name": "_tokenHave",
          "type": "string"
        },
        {
          "name": "_tokenNeed",
          "type": "string"
        },
        {
          "name": "_quantity",
          "type": "uint256"
        }
      ],
      "name": "makeOrder",
      "outputs": [],
      "payable": true,
      "stateMutability": "payable",
      "type": "function"
    }
  ],
  "bytecode": "0x608060405234801561001057600080fd5b5033600160006101000a81548173ffffffffffffffffffffffffffffffffffffffff021916908373ffffffffffffffffffffffffffffffffffffffff16021790555061044d806100616000396000f300608060405260043610610041576000357c0100000000000000000000000000000000000000000000000000000000900463ffffffff168063de6d86f514610046575b600080fd5b6100f0600480360381019080803590602001908201803590602001908080601f0160208091040260200160405190810160405280939291908181526020018383808284378201915050505050509192919290803590602001908201803590602001908080601f0160208091040260200160405190810160405280939291908181526020018383808284378201915050505050509192919290803590602001909291905050506100f2565b005b336000806101000a81548173ffffffffffffffffffffffffffffffffffffffff021916908373ffffffffffffffffffffffffffffffffffffffff16021790555082600360008060009054906101000a900473ffffffffffffffffffffffffffffffffffffffff1673ffffffffffffffffffffffffffffffffffffffff1673ffffffffffffffffffffffffffffffffffffffff16815260200190815260200160002060000190805190602001906101a992919061037c565b5081600360008060009054906101000a900473ffffffffffffffffffffffffffffffffffffffff1673ffffffffffffffffffffffffffffffffffffffff1673ffffffffffffffffffffffffffffffffffffffff168152602001908152602001600020600101908051906020019061022192919061037c565b5080600360008060009054906101000a900473ffffffffffffffffffffffffffffffffffffffff1673ffffffffffffffffffffffffffffffffffffffff1673ffffffffffffffffffffffffffffffffffffffff1681526020019081526020016000206002018190555080600360008060009054906101000a900473ffffffffffffffffffffffffffffffffffffffff1673ffffffffffffffffffffffffffffffffffffffff1673ffffffffffffffffffffffffffffffffffffffff168152602001908152602001600020600301819055506000600360008060009054906101000a900473ffffffffffffffffffffffffffffffffffffffff1673ffffffffffffffffffffffffffffffffffffffff1673ffffffffffffffffffffffffffffffffffffffff16815260200190815260200160002060050160006101000a81548160ff0219169083600381111561037257fe5b0217905550505050565b828054600181600116156101000203166002900490600052602060002090601f016020900481019282601f106103bd57805160ff19168380011785556103eb565b828001600101855582156103eb579182015b828111156103ea5782518255916020019190600101906103cf565b5b5090506103f891906103fc565b5090565b61041e91905b8082111561041a576000816000905550600101610402565b5090565b905600a165627a7a723058204dbc312e9a60cb2e5f1ca195cf848327b40c014ccdcd9813bb25653b161f67f20029",
  "source": "pragma solidity ^0.4.23;\n\ncontract ZetaProto {\n    \n    address maker;\n    address owner;\n    uint256 commission;\n\n    enum Status {open, closed, locked, canceled }\n\n    struct Order {\n        string tokenHave;\n        string tokenNeed;\n        uint256 quantity;\n        uint256 value;\n        uint256 timestamp;\n        Status status;\n    }\n\n    constructor () public {\n        owner = msg.sender;\n    }\n\n    mapping (address => Order) listed_orders;\n\n    function makeOrder(string _tokenHave, string _tokenNeed, uint256 _quantity) public payable {\n        maker = msg.sender;\n        listed_orders[maker].tokenHave = _tokenHave;\n        listed_orders[maker].tokenNeed = _tokenNeed;\n        listed_orders[maker].quantity = _quantity;\n        listed_orders[maker].value = _quantity ;\n        listed_orders[maker].status = Status.open;\n    }\n}",
  "sourcePath": "/home/suraj333/COINSHIP/contracts/ZetaProto.sol",
  "compiler": {
    "name": "solc",
    "version": "0.4.24+commit.e67f0147.Emscripten.clang"
  },
  "schemaVersion": "2.0.1",
  "updatedAt": "2018-10-01T16:37:41.122Z"
}